:020000040000FA
:10000000C0890020413C00008FB000002D3C000062
:100010002D3C00002D3C00002D3C000000000000A5
:10002000000000000000000000000000A93D0000EA
:100030002D3C000000000000493D00002D3C000068
:10004000653F0000653F0000653F0000653F000020
:10005000653F0000653F0000653F0000653F000010
:10006000653F0000653F0000653F0000653F000000
:10007000653F0000653F0000653F0000653F0000F0
:10008000653F0000653F0000653F0000653F0000E0
:10009000653F0000653F0000653F0000653F0000D0
:1000A000653F0000653F0000653F0000653F0000C0
:1000B000653F0000653F0000653F0000653F0000B0
:1000C000653F0000653F0000653F0000653F0000A0
:1000D000653F0000653F0000653F0000653F000090
:1000E000653F0000653F0000653F0000653F000080
:1000F000653F0000653F0000653F0000653F000070
:1001000053B94AB9002908BF00281CBF4FF0FF317E
:100110004FF0FF3000F00CB8ADF1080C6DE904CEE3
:1001200000F010F8DDF804E0DDE9022304B07047C8
:10013000704700BF034613F8012B002AFBD1181AA1
:10014000013870472DE9F04786468C460846089EE0
:10015000154674461946002B40F0C2808542B2FA1B
:1001600082F245D94AB1C2F1200300FA02FC2EFA0C
:1001700003F3954043EA0C0C94404FEA154EA8B2A5
:10018000BCFBFEF8230C0EFB18CC08FB00F943EA7D
:100190000C43994528D9EB1808F1FF3704D299454B
:1001A00002D9A8F102072B44A3EB0903A4B2B3FBC5
:1001B000FEFC0EFB1C330CFB00F044EA0344A0429F
:1001C00014D92C190CF1FF3304D2A04202D9ACF19E
:1001D00002032C44241A43EA07401EB1D4400023F2
:1001E00034607360BDE8F0874746DDE76346F1E7BA
:1001F00092BB431B01214FEA154EAFB2B3FBFEFC8D
:10020000200C0EFB1C330CFB07F840EA0343984517
:1002100062D9EB180CF1FF3004D2984502D9ACF149
:1002200002002B44A3EB0803A4B2B3FBFEFC0EFBBD
:100230001C330CFB07F744EA0344A7424ED92C19A0
:100240000CF1FF3304D2A74202D9ACF102032C44D3
:10025000E41B43EA0040C0E7C2F1200320FA03F1A7
:10026000954090402EFA03F303434FEA154EAFB288
:10027000B1FBFEFC0EFB1C10190C0CFB07F841EA4D
:100280000041884504FA02F422D969180CF1FF30C4
:1002900004D2884502D9ACF102002944A1EB08013F
:1002A0009BB2B1FBFEFC0EFB1C110CFB07F743EAF3
:1002B00001439F420ED9EB180CF1FF3104D29F424B
:1002C00002D9ACF102012B44DB1B41EA004192E769
:1002D0006046E3E76146F7E76046A3E76346B7E7B2
:1002E000834206D916B9002108467BE7C6E900E03B
:1002F000F9E7B3FA83F78FB9834201D3724508D87F
:10030000BEEB020460EB030301209C461EB90021F2
:1003100068E73846FAE7C6E9004CF8E7C7F1200C71
:10032000BB4022FA0CF41C432EFA0CF120FA0CF319
:10033000B84001434FEA14490EFA07F5B3FBF9F848
:100340001FFA84FE09FB18300B0C08FB0EFA43EA77
:1003500000439A4502FA07F240D9E31808F1FF304A
:1003600004D29A4502D9A8F102002344A3EB0A0360
:1003700089B2B3FBF9F809FB183308FB0EFE41EA1A
:1003800003418E452CD9611808F1FF3304D28E4504
:1003900002D9A8F10203214443EA0040A0FB0298DD
:1003A000A1EB0E014145CE46434602D306D14D4551
:1003B00004D2B9EB020E68EB04030138002EA6D07C
:1003C000B5EB0E0261EB030101FA0CFC22FA07F314
:1003D0004CEA0303F940C6E9003198E74046C5E717
:1003E0004346D9E730B52E4B2E4AC3F8002685B0D8
:1003F000C3F80426C3F80826C3F80C26C3F8102651
:10040000C3F81426C3F81826C3F81C2600F066F8B3
:1004100000F06CF858B14FF08043D3F800340BB1C2
:10042000DB0704D502F05CFD1F4803F019F901A8B1
:1004300000F01CFD1D4B1B68834200D0FEE74FF40B
:10044000903100200BF09AFA00B1FEE79DF8080009
:10045000694609F0CAFB044608B10AF059FE009A41
:10046000039B134D1344019A128913442B6006F029
:1004700063FA01F02FFD00F0E5FE00F0B9FE03F095
:1004800009FC2B681B6883F3088884F31488BFF386
:100490006F8FBFF36F8F2B685868064B9847FEE746
:1004A000000001403546526E28E40000CC0F0020C9
:1004B000C80700200100002021B1012906D06FF0FB
:1004C00015007047044B53F830007047024B03EBA4
:1004D000C0035868704700BF30E4000002484FF482
:1004E000C05106F04DBF00BF922D002073B50F4CD8
:1004F00020460DF059FAB8B12569A6682B680C4A58
:1005000043F400532B6033680D21204698477368ED
:1005100001A92046984720B92B6801985840C0F39C
:100520004030003818BF012002B070BDFCE0000070
:10053000110001002DE9F04FD5B0DFF86081609C1B
:10054000D8F8005003945F9C02940DF130095E9C32
:10055000CDF804900094619F82468B46164609F0C0
:1005600067FB28B1D8F80050284655B0BDE8F08F99
:1005700057B14A4614AC134603CBA34238607960A6
:100580001A4607F10807F6D10023009332464FF6CA
:10059000FF73594606A809F090FB07460028E1D1F1
:1005A000314650460B9C09F06EFCA042DAD3DFF8CE
:1005B000F0B04FF0FF340DF1120304AA05A906A80C
:1005C00009F0C9FB0028CDDB64D1059906A809F024
:1005D0000EFC50B9BDF81200324A4FF6FF7132F8E6
:1005E000023B8B42BED09842F9D1BDF812A0BAF1BD
:1005F000100F17D0BAF1200F2BD0BAF1010FDAD1BA
:10060000BDF81030202BADD8059914AA30460AF059
:10061000C7FA0028A6D19DF8101014A800F046F8DB
:100620000446C8E7BDF81070202F9BD105993B46C2
:1006300014AA30460AF0B4FA002893D13A4614A915
:10064000484609F0E2FB184B1B6883428AD1012718
:10065000B1E7002C1BDBDBF80030A34217DDBDF84F
:100660001030B3F5807F7FF47DAF059914AA304632
:100670000AF096FA00287FF475AFE4B2BDF81030A6
:10068000009414AA5146484600F0DCF805464FF0A5
:10069000FF3490E7002F7FF467AF63E7F40000209A
:1006A00038E4000094E70000CC0F00202DE9F04171
:1006B0002029A2B080460D4605D94FF0FF342046D0
:1006C00022B0BDE8F081124B124E1F680024A742F1
:1006D000F3DD08A80CF0A5F9002108A806F088FFB2
:1006E000736856F8081B1A6808A80CF0A3F9694645
:1006F00008A80CF0DEF908A80CF097F92A46414644
:1007000068460DF066FC0028D9D00134DFE700BF51
:1007100038E400003CE400002DE9F0478946ADF5DF
:10072000AE6D1946454B1E68DDF89035B3F5807FF8
:100730007ED1202A7CD15CAA06F012FF0446002854
:1007400076D19DF86F32BC2B72D10DF190080190DB
:10075000DF2745460AA80CF064F900210AA806F034
:1007600047FF20220DF24F210AA80CF063F9042262
:100770000DEB02010AA80CF05DF902A90AA80CF021
:1007800098F90AA80CF051F9202F9DF80730BA46C5
:10079000A8BF4FF0200A01334046524602A9A7EBFA
:1007A0000A078DF807300DF0E4FB002FD044D1DCB0
:1007B000AC465CAB2946DF22087813F8017B013A8E
:1007C00080EA070001F8010BF6D12B7803F07F03D4
:1007D0002B701CF8017B5FBB0134BE2CF9D195F85E
:1007E000BE30012B24D10AA80CF01BF939460AA807
:1007F00006F0FEFE124908220AA80CF01BF9494631
:1008000020220AA80CF016F920220DF24F110AA896
:100810000CF010F902A90AA80CF04BF90AA80CF088
:1008200004F920220DF24F2102A809F0EEFA064643
:1008300030460DF5AE6DBDE8F08700BFF400002036
:10084000C2E700002DE9F04F1F46A3B02F4B9DF8E3
:10085000B0501E68804604A8894692460CF0A2F863
:100860000922012104A806F03DFE294B53F835402A
:10087000029403EBC50303AA5B681B681C44214672
:10088000302302A80BF074F9002838D1DDE90232D8
:1008900013449C4233D106AA214602A80BF07CF9EE
:1008A00068BB0DF1200B5A46214602A80BF074F9E3
:1008B000054620BB06A80BF021FD029B05909C423B
:1008C0001DD1CDE9005B2B462A4606A904A80CF0F1
:1008D00026F8A0B904A806F01DFE80B906A80BF002
:1008E0000DFD059004A80CF061F8874207D1009730
:1008F00053464A46414604A8FFF70EFF064604A8A1
:100900000CF056F8304623B0BDE8F08FF40000201C
:100910003CE40000094A0B78400052F820108B425A
:1009200009D0013052F82000834214BF4FF0FF304D
:100930004FF4C07070474FF4C070704744E400003B
:1009400038B50E4B002918BF0B46436203F5806390
:1009500003650221044609F0DDFA58B90521204655
:1009600009F0D8FA054638B9206A0AF058F9E06566
:10097000284638BD0125FBE70925F9E7CC0700200B
:100980002DE9F3471E468368994205460C461746F3
:1009900044D25B1A934241D38EB36A4609F02DF9D3
:1009A00000283DDB013FDDF800803C441E4FDFF8AE
:1009B0007C906A462146284609F01FF900282FDB63
:1009C000DDE900A42846224651460AF013F9002822
:1009D00026DBC7F80096C7F80496C7F80896C7F84C
:1009E0000C96C7F81096C7F81496C7F81896C7F86B
:1009F0001C9676B1D04513D20AF1FF34D9E7511EC7
:100A000021446A4609F0F9F8002809DBDDF8008086
:100A1000CCE75444444503D80134CAE74FF0FF30D3
:100A200002B0BDE8F08700BF000001403546526EBD
:100A300010B52C2359434218146A0CB90AF068FB0C
:100A400041580B4B994206D1D16813895B1802D2E9
:100A50005189C91801D3002009E0A3689942FAD24C
:100A6000136940F60C621A420CBF0120002010BD31
:100A70003DB8F3961FB52C2303FB02010A6A0AB99D
:100A80000AF046FB0023CDE9023301934FF4807353
:100A90000093034BFFF74EFD05B05DF804FB00BF6C
:100AA000924500202DE9F0412C2707FB0107044661
:100AB000D7F820800D461646B8F1000F01D10AF094
:100AC00027FB09F07AFA10B93B69DB0617D595B117
:100AD0004146204609F0F9FAF379042B06D1216A40
:100AE0000029ECD0204609F0F0FA04E0002005F0DF
:100AF000D1FF0428F3D00E4B1868BDE8F0812946D9
:100B00002046FFF795FF60B90A4B18680A4B1B682F
:100B10008342F2D0002DEED00121404609F048FA80
:100B2000E9E72A4631462046FFF7A4FFEEE700BF7B
:100B3000F0000020F4000020CC0F00200048704797
:100B4000D013002073B50D46044600212846CDE998
:100B5000001109F085FA18B323681B4EB34206D181
:100B600001AA204609F091F908B10AF0D1FAE36A26
:100B7000B34206D16A460121204609F086F90028D1
:100B8000F3D1DDE90032934288BF0193019BAB6052
:100B90002046019A294600F037FA002002B070BDC5
:100BA0000146204609F040F906460028DDD005F14F
:100BB000080109F04BF90028D7D1AB680193304602
:100BC00009F0EDFFE4E700BF3DB8F3962DE9F84FDB
:100BD000DFF870B01C4C1D4D884691469A460026A1
:100BE0000B9B9E4201D300200FE00B9B154A9F1BDD
:100BF000B7F5806F28BF4FF480673B4606EB0A01CC
:100C0000404609F0CDFF10B10120BDE8F88F0A99E8
:100C10003B465A467118484609F0D7FF0028F3D1E1
:100C2000C4F800563E44C4F80456C4F80856C4F844
:100C30000C56C4F81056C4F81456C4F81856C4F824
:100C40001C56CDE7D00F0020000001403546526E03
:100C5000F0B587B00E46044609F0D4F9014600B15C
:100C6000FEE72046FFF76CFE68BB002211462046D7
:100C700009F0B0F9002865D1204609F000FB0028F2
:100C800060D002A809F0E3F90146204609F05BFABA
:100C9000002857D102A809F0E3F980F0010102AA67
:100CA000C9B2204609F096F9024600284AD102A8A6
:100CB00009F0D6F9002849D102A92046FFF742FFE2
:100CC00098B10AF025FA0123984284F85830CCD123
:100CD00094F858308DF80F30042B61D8012B66D86A
:100CE00079D0FF2384F8583075E09DF80F3084F8F0
:100CF0005830DA1E012A19D800F0DAF89DF80F30C2
:100D000028B9023B022B08D994F8583011E0023B75
:100D1000FF22022B84F85820D3D8002000F0B2F82C
:100D20000028F1D0FF2384F85830CAE79A1E022A1F
:100D3000F3D9FF2BC5D000221146204609F04AF90D
:100D40000028BED1012384F85830C1E79DF80F7008
:100D5000012F18D1104605F09DFE831E022B05467B
:100D60000ED802AA39462046FFF79CFE3C4B1B6872
:100D7000984205D03B4B1D68A84214BF05250125AC
:100D800084F85850A4E7012102AA2046FFF78AFE02
:100D9000334B1B6898420CBF9DF80F300523D2E7F8
:100DA000052B9ED1002000F083F8A0B199E702A99D
:100DB0002046FFF7C7FE002883D194F85830DA1E8A
:100DC000012A23D800F074F80028ABD1002000F0ED
:100DD00059F80028A6D194F85830FF2B3FF471AF92
:100DE0000022012B204D019213D01146204609F01C
:100DF000F1F870B12D681022002102A80DF0E1F881
:100E0000204609F017F9284607B0F0BD022BE2D1C1
:100E1000DCE7002211462046FFF744FE104F3B68F6
:100E20009842E7D12B689842E4D00E4B1B68984259
:100E3000E0D00021204609F0E3F80028DAD1019B38
:100E400001330193019B012B00D0FEE7206A08F0DB
:100E5000D2FE3071236A5B6834603D68B360CAE7D4
:100E6000CC0F0020F0000020F400002010B5044654
:100E7000002009F069F802482146FFF7E9FE10BD9D
:100E8000D013002013B5094B01A913F8300000F06E
:100E9000E3FC48B901980AF02FFE0446019809F0D6
:100EA0007EFE204602B010BD0124FAE74CE40000AB
:100EB0001FB50F4B01A913F8300000F0CDFCA8B905
:100EC000019802A905F090FD044668B99DF80B3021
:100ED000032B03D101980AF0D7FD0446019809F0CD
:100EE0005EFE204604B010BD0124F7E70124F8E7B8
:100EF0004CE400002DE9F34106460C4617461D461A
:100F00000BB9002121E0184609F0AAF80146002893
:100F1000F7D1304608F088FF18B9012002B0BDE8CB
:100F2000F08101A908F092FF0028F6D1019930461E
:100F300009F03BF9736A59686B79012B0CD1002CCD
:100F4000DFD12B68834298BF00212C2303FB04666A
:100F5000306AB0B90AF0DCF8022BD2D12B68012B31
:100F600005D98342CDD8B4FA84F46409C9E7C8D15D
:100F7000002CEAD0012CC4D12C79023C18BF0124EA
:100F8000BFE720233A4609F00BFE0028C5D1002D0B
:100F9000C4D03868024BC01A18BF4FF0FF30BDE70D
:100FA0003DB8F39673B54B681446164A03F0FF2319
:100FB000934206460D4623D10B68012B20D169468A
:100FC000204605F011FD08B10AF0A2F89DF80030A6
:100FD000032B15D12146304609F077F80028F3D1CC
:100FE00020460AF051FD0028EED1A968204608F0FD
:100FF0003BFF0028E8D1204605F0D4FC0028E3D1CF
:1010000002B070BD000100042DE9F04F0C4687B01E
:101010001146054609F0C9F86B6A039020465F68DF
:1010200009F01EF890B1E86D08F099FFAB6A002254
:10103000013B3A44904201D9013BFAE7039A9342BB
:1010400004D80123E37107B0BDE8F08F2E6A0EB912
:101050000AF05EF8D5F84C80B8F1000FF8D042469F
:1010600021462846FFF79EFF6379012B56D1DDF814
:101070000C90DFF878B14CE022680399C2F10103CB
:101080000B444B4543D36B6A196853F8390003EBA3
:10109000C903012A53F8083CA3EB0103A0EB010AA2
:1010A000049315D1E368022B0CD03146284609F091
:1010B0000CF80028CCD122463146284609F01AF80F
:1010C0000028C5D14146284608F0FFFF0028BFD1BF
:1010D00000233A4651463046FFF752FC0028B7D16C
:1010E000CDE900A7049B324631462846FFF76EFD46
:1010F0000028ADD12146284608F0BFFF2368013300
:10110000236020B1DBF800300133CBF8003009F167
:10111000FF39B9F1000FAFD10123236002236371BE
:101120004FF00109039B99458DD823684B455AD848
:101130006A6A4FEAC903083B52F83910D2F800B086
:101140000491D1582A6DD0581368A0EB030A237973
:10115000012B46D1A1EB0B0100233A463046059105
:10116000FFF70EFC00287FF473AF059900910197FB
:101170005346324641462846FFF728FD00287FF4B3
:1011800067AF2146284608F078FF0223237118B183
:10119000164A13680133136000233A46514640460D
:1011A000FFF7EEFB00287FF453AF049BCDE900A7C7
:1011B000A3EB0B03424631462846FFF707FD002804
:1011C0007FF446AF2146284608F057FF23680133D5
:1011D00023600123237130B1044A13680133136083
:1011E00001E0022BD8D009F101099BE7301400205F
:1011F000BFF36F8F72B6124B4FF0FF32C3F88020EF
:10120000C3F88420C3F88820C3F88C20C3F890204A
:10121000C3F89420C3F89820C3F89C20C3F8802119
:10122000C3F88421C3F88821C3F88C21C3F8902126
:10123000C3F89421C3F89821C3F89C21704700BFDC
:1012400000E100E03E4A2DE9F0434FF0FF33012179
:101250005160C2F84833C2F8083302F5C042394E33
:101260005160C2F84833C2F8083302F59832364F5D
:10127000DFF8D880516085B0C2F848330025C2F845
:10128000083356F8044B4FF0FF3944F30730C4F8E5
:10129000089302F0A9FD012363600023C4F84C31D8
:1012A000D4F84C21C4F81031D4F81021C4F84431DA
:1012B000D4F84421C4F80035D4F80C250092D4F8B1
:1012C00014250192D4F808250292D4F8102503922F
:1012D000C4F80C956846C4F81495C4F80895C4F889
:1012E000109550F8042B511C0FD002F01F01520929
:1012F0001DD0012A1ED1424602EB8102D2F800170E
:10130000394041F00201C2F800170133042BE8D143
:101310005DB10F4A4FF0FF33C2F808354FF08042FD
:10132000C2F8083305B0BDE8F0830125A9E74FF006
:10133000A042E1E701F5E071002353F82130FFDE20
:1013400000B0004058E40000F0F8FCFF000300503B
:1013500000F00140014B1B68184700BFF800002057
:1013600030B585B004460D461022002168460CF0C9
:1013700028FE02238DF802302A46044B01932146B1
:10138000684608F0E7FA05B030BD00BF551300000D
:1013900080B505460E461746984607F0F7FD03460A
:1013A0000CF04AFEDFF81890044649F80030424637
:1013B00030463946A84754F8090002F0AFFC00BF98
:1013C0000800000008B50446EFF31183202383F3DF
:1013D0001288BFF36F8F05F0AFFA204602F068FF66
:1013E000024809F0FFF909F067FEFCE7D8E80000C1
:1013F0002DE9F043079D15B91560002012E0032484
:10140000B5FBF4F404EB4407BD4218BF0134B4F15A
:10141000804F09D2A40001348C4200D838B914603E
:101420006FF00B00BDE8F0834FF0FF34F7E7DFF813
:10143000BCE004460021B94203F1030C04F10406A8
:101440002CD3A942274624D21F7801F1010CAC45C8
:10145000264938BF5B784FEAA70E28BF002311F852
:101460000EE084F800E0AC4501EB131E3CBF9B008E
:1014700003F03C034FEA071707F0300738BFCB5C97
:101480001EF80770677028BF3D23A3703D23E370EB
:101490003746381A002310603B70AEE71CF8034C47
:1014A0001CF8023C1CF8018C4FEAA40924011EF828
:1014B000099006F8049C04F030040EEB13199B000D
:1014C00019F8044006F8034C03F03C030EEB9814A3
:1014D00008F03F08E35C06F8023C1EF8083006F806
:1014E000013C033134466346A5E700BF81E90000B3
:1014F0002DE9F043DDF81CE0DFF82C8100273C46A5
:101500003D4675451FD3E4BB14600020BDE8F08361
:101510000136764533D013F806C0BCF1200FF7D062
:10152000AEEB0609B9F1010FA6EB05050DD0BCF134
:101530000D0F0AD103EB060999F80190B9F10A0FD2
:101540006ED1751CDDE72E46E3E7BCF10A0FF8D03B
:101550002DB9BCF13D0F05D10137022F0DD96FF028
:101560001500D3E71CF0800FF9D118F80C507F2D2F
:10157000F5D03F2D01D8002FF1D10134E1E73546F8
:10158000C1E704F007064FF0060CE4080CFB06F672
:101590000CFB04F40736E41B04EBD60470B18C4258
:1015A0000CD80027DFF880E0DFF880801D4401467A
:1015B00003263C469D4205D10C1AA5E714606FF046
:1015C0000B00A3E713F8019BA9F10A0C5FFA8CFC4E
:1015D000BCF1160F04D848FA0CFC1CF0010FE9D03E
:1015E0001EF809C00134BCF1400F08BF013E0CF0E9
:1015F0003F0C042C4CEA8717DCD17EB13C0C012E49
:101600000C7002D101310024D4E7022E4FEA1724D6
:101610004C7016BF8F7002310331F4E73446C9E7CE
:10162000002DA2D09BE700BF01E90000F6FFBFFF3D
:101630002DE9F047058B04462807904611D402296E
:1016400005F0070540F0CC80204609F0F3F878B1AA
:101650000138218B042811D8DFE800F0C2106D8515
:10166000950001290CBF45F0100545F020052583A4
:1016700088F31188BFF36F8FBDE8F08701F0070A88
:10168000AA4500F0A5800027B9463E46A368002B76
:1016900000F0BC8041F00801218388F31188BFF37A
:1016A0006F8FA168002900F0BA800D68002900F052
:1016B000B680D1F80480334652462046C047002DFC
:1016C00076D02B6829461D46F0E701F007035A1F24
:1016D000012A1BD8002221F00701062B276889B2B6
:1016E000C4E9002209D13B4603E0628B01326283E8
:1016F0001B68002BF9D141F002012183204609F03B
:1017000099F800287AD041F0200176E0042B0AD124
:1017100021F0070189B22183204609F08BF810B12E
:1017200041F020012183218B01F0070AAA454FD007
:101730000027B946AAE7236921F0070141F0060115
:10174000062DD3F8009021832DD1B9F1000F3FD0A1
:1017500041F00801218388F31188BFF36F8F3A4964
:101760002046C84729E021F00701236941F0040120
:1017700089B2042DD3F804902183E6D000273E4699
:101780004FF0040A82E721F00701236941F00501C7
:1017900089B2052DD3F808902183D6D000273E4684
:1017A0004FF0050A72E700273E464FF0060A6DE744
:1017B0002B4687E7B9F1000FD1D1EFF31188202331
:1017C00083F31288BFF36F8F238B23F008032383E7
:1017D000258BEA062ED525F01003238305F0070597
:1017E0006669218B002EBFF670AF00232768C4E91D
:1017F000003321F0070141F001012183218B01F029
:10180000070AAA454FF000097FF440AF002F9CD093
:1018100041F00801218388F31188BFF36F8F002FF7
:10182000C8D03D68394633465246204609F02EF866
:101830002F46F4E7AB067FF51BAF25F0200323838B
:1018400005F0070500E700BFB9A80000014B0360E1
:101850000020704760E4000070B5104B1C680D4616
:10186000B4B10F4B196800238B4202DB6FF001000B
:1018700070BD224612F8106B864202D00133144626
:10188000F2E7E0680CF090F828B12C600020EFE758
:101890006FF00C00ECE76FF01200E9E73C0100206C
:1018A00060E4000010B588B0436802938368C068A4
:1018B000CDE903320A680023CDE906230C4601AACC
:1018C0000449059309F061FD079808B9059B236059
:1018D00008B010BD3BAC0000F0B40D4B0D4E5F6A7C
:1018E0000D4BB34203D36FF08500F0BC70475C68CA
:1018F000BC420AD31D6945B194F802C08488E4B2A1
:10190000A44502D12B46F0BC18472433E9E700BFB9
:101910003414002028040020040400202DE9F0479E
:10192000144CDFF85480DFF8549005460E461746F5
:10193000444503D36FF08500BDE8F0876268D9F8AD
:1019400024309A4213D3A3698BB1A9889078C9B285
:10195000884205D13A4631462846BDE8F047184747
:101960005279012A03D13A46314628469847243411
:10197000DEE700BF04040020280400203414002007
:101980002DE9F0410B4CDFF8308005460E46174636
:10199000444502D36FF0850009E063690BB9243434
:1019A000F6E73A463146284698470028F7D1BDE881
:1019B000F08100BF040400202804002010B5044674
:1019C00009F0E9FB10F1780F00D050B9054A204624
:1019D00009F06EF9D2F8C43023EA0003C2F8C4302B
:1019E000002010BD34140020024B00221A605A60FF
:1019F000704700BFEF14002070B50B4B0B4CA34297
:101A000001D3002070BD196A1E7F00220439D5B2AF
:101A1000AE4201D82433F2E7013211F83250854248
:101A2000F5D10120EEE700BF0404002028040020C7
:101A300073B58488E4B263060D468DF8074007D07D
:101A40002046FFF7D9FF78B10D4B93F8BA0058B193
:101A50000B4E204655B103F041F8F3691BB10DF16F
:101A6000070108209847012002B070BD03F05EF81E
:101A7000F369002BF7D00DF107010920F2E700BF51
:101A80003414002008B509480378C3F341130A331E
:101A900050F823303BB100F1080200F110019847E3
:101AA000C043C00F08BD1846FCE700BF3414002037
:101AB00004282DE9F14FDFF8989004460F4616D020
:101AC00001282DD1DFF88C8098F8B93043B300F0AD
:101AD0000BFE214D4D4520D2D5F820B04FF0000A25
:101AE0002B7F5FFA8AF6B34204D82435F2E7FFF77A
:101AF0007BFFE7E70BEBC6060AF1010A307909F034
:101B00004AFB0246307909F0D3F8D8F8C430002AED
:101B100023EA0003C8F8C430E2DA002388F8B930B9
:101B20000D4D4D4508D30B4B1B6A6BB13946204612
:101B300001B0BDE8F04F1847EB681BB13A462146AB
:101B4000284698472435ECE701B0BDE8F08F00BF88
:101B500028040020341400200404002073B5867883
:101B60008DF80060037942791C4C43EA0223ADF8FA
:101B70000230C378304603F003038DF8043009F0D7
:101B800097F8D4F8C430184205460BD0304600F020
:101B90008DFD3046FFF712FF0CF094F810B9962037
:101BA00007F0B2F9684602F075FF10F1780F03D024
:101BB00010B1002002B070BD9DF8000002F0F2FFED
:101BC00010F1780F01D00028F3D1D4F8C4300120EF
:101BD0002B4384F8B900C4F8C430EBE73414002078
:101BE0002DE9F047A84EB36904460F461546FBB9E8
:101BF000237803F01F03012B00F09E80022B00F0DE
:101C0000068133BB94F900002A686178002834DA31
:101C1000062912D008292BD0D9B90123137051708D
:101C200096F8C3305B0043F001031370022328E1F0
:101C300098470028DCD100200DE06288100A011FBF
:101C40000129844605D9072803D8716AD2B20C78D5
:101C50001CB96FF01500BDE8F0874E78664503D1DA
:101C60009A4200F0098101332144F0E70B7808E142
:101C700096F8BA301370012303E101390829E8D836
:101C800001A353F821F000BF231D0000531C0000E6
:101C9000311D0000531C0000AD1C0000531C00004F
:101CA000531C0000531C0000BB1C00006088C0B225
:101CB00002F0DEFE0028BED0CBE76388756A63BB06
:101CC000FFF792FE638886F8BA30F369002BB2D032
:101CD0006E4903209847AEE76B78042B10D0052B94
:101CE00011D0022B04D16F796388BB4208BF012059
:101CF0002B781D442B78002BEED10028A9D0DFE7EC
:101D000095F80380F4E76388BB42F1D1B8F1000F86
:101D1000EED12846FFF722FFEAE7FF270020B8466A
:101D2000E8E76388012B94D1002386F8C33082E76B
:101D30006388012B8DD1F8E796F8BA30D5F800C04A
:101D4000002B86D0A388756A5FFA83FE2A46107836
:101D500000283FF47EAF5178022904D192F8048024
:101D6000F04500F295800244F1E78CF800208CF8F1
:101D7000012039605FE7154496E00B2A7FF469AFD4
:101D800000274FF0FF08C146BA4606E06B78042BE7
:101D90000FD0052B21D02B781D442B78002BF5D1AB
:101DA000F36913B1514607209847002F7FF443AFE2
:101DB0004FE795F80280A38895F803909845EAD1FB
:101DC00063889945E7D1B8F1070F1DD806EB0803E2
:101DD000AA4683F8BB900127DDE7A3884345DAD103
:101DE0006388DBB24B450AD0AF78384600F05EFC22
:101DF0003846FFF7E3FDB0FA80F77F09CBE72846C6
:101E0000FFF7ACFE0746C6E7AA460027C3E794F9EA
:101E100000206378002A19DA002B7FF41AAFA38818
:101E20002D68DCB25B060AD02046FFF7E5FD0028EE
:101E30003FF40FAF96F8BA30002B3FF40AAF2946B3
:101E4000204602F093FE00236B70EFE6012B08D0D2
:101E5000032B7FF4FEAE6388002B7FF4FAAE0121E2
:101E600003E0618800297FF4F4AE2046FFF7E0FD2F
:101E700000287FF4E0AEECE6022829607FF4F6AE9D
:101E80004B883B60D7E600BF34140020EE140020DE
:101E900094F9000062780028BFF66FAF002A3FF483
:101EA00064AF0A2A7FF4D5AE2A78002A3FF4D1AE77
:101EB000697804297FF45FAFA9788B427FF45BAF28
:101EC000072B96BF9B19002393F8BB308CF800308A
:101ED000D1E600BF70B5164D95F8B830FBB102F0F1
:101EE000A7FD002822DB00F0FFFB0024D5F8C4305A
:101EF000E340DA07E6B214D4D5F8C43004F1100296
:101F0000D340DB0705D546F08000FFF757FD0028DA
:101F10000CDB0134102CE9D1002385F8B830002007
:101F200004E03046FFF74AFD0028E5DA70BD00BF47
:101F30003414002013B5164C237DF3B9E268A16870
:101F4000019201AB802008F0C1FE019AA3681344FE
:101F5000A360E3689B1AE3606BB962B12369E2880E
:101F60009A4208DD94F8C82093FBF2F102FB11338A
:101F70000BB90123237502B010BD00231A46194680
:101F80008020237502B0BDE8104002F035BE00BFCE
:101F90003414002030B585B0002302460D4601936D
:101FA000002858D1002935D108220B460DEB02013B
:101FB00009F00AF9002804DA802002F08FFD05B04C
:101FC00030BD2A4C029A2260039A626004F1380202
:101FD000A2609DF90820BDF80E302575002AC4E9DD
:101FE00003550ADB802B04D9802002F077FD002006
:101FF000E3E713B1C4E90333E1E7FFF743FD00284A
:10200000DAD0E28823699A42D4BFE260E360FFF746
:1020100091FFD4E7154CD4E90215002D01AB04DC87
:1020200009F0D2F80028CADAC6E72A4609F0CCF847
:102030000028D9DB019AA3681344A360E3689B1AC4
:10204000E360002BBBD104F13803A360FFF71AFD56
:102050000028DCD1B0E78028B1D1044BDA68002A2F
:10206000D5D11B7D002BD2D1A9E700BF34140020AD
:10207000054B064A9A62064ADA62064A1A63064A1B
:1020800058629A610020704734140020E11B000060
:10209000D9180000811900001D1900002DE9F34135
:1020A0000446474D47484FF0FF334FF0FF3206F0EC
:1020B00083F995F8B830002B7BD16B6A83B1424825
:1020C0002C62E8616E6A02F0B1FE02F07FFC041E31
:1020D00010DA3C4806F0E8F9204602B0BDE8F0818D
:1020E00000F0BEF8FFF7C4FF6B6A002BE7D14FF09A
:1020F000FF34EEE700F01AFB041EEADB7378012BD5
:102100005AD1F379002B57D00026684685F8C8309D
:10211000ADF802308DF804608DF8006002F0BAFC72
:10212000041ED6DB802768468DF8007002F0B2FCF2
:10213000041ECEDB2549304602F064FE041EC8DBD7
:102140002249384602F05EFE041EC2DB204CDFF856
:10215000848044451AD3002002F024FD041EB8DB1D
:10216000D5F8C430802043F00103C5F8C43002F034
:1021700019FD041EADDBD5F8C43043F48033C5F837
:10218000C430012385F8B8300024A2E7276A00266E
:10219000227FF3B29A4201D82434DAE707EBC30274
:1021A00057F83310107902F02DFE01360028EFD0D9
:1021B0009DE76FF077048CE76FF0150489E700BFA7
:1021C0003414002010030020B11A0000951F0000F5
:1021D000040400202804002030B51F4B8BB005AA52
:1021E00003F1100518685968144603C40833AB425C
:1021F0002246F7D11B7823701022002101A80BF092
:10220000E0FE1222002115480BF0DBFE102101A890
:1022100009F06CF900281BDD0828B8BF0820093830
:1022200001AB0E491A18002012F8013F0AAC04EB6A
:10223000131403F00F0328336B44013014F8144CCB
:1022400013F8143C0C7008284B7001F10201EBD11B
:1022500002480BB030BD00BFC1E90000934600202A
:102260002DE9F04F724B93F800B087B0BBF1000F2F
:1022700003D0704807B0BDE8F08F6E4C00264FF0D9
:10228000011AB0463546B14623783BB96A4B023451
:102290009C42F3D1664A01231370EAE76378052B69
:1022A0001BD8DFE803F08E03C38E1D39402304A83A
:1022B0008DF810B0ADF812308DF814B008F056FF5C
:1022C00040B1082304A8ADF8123008F04FFF08B160
:1022D000ADF812B0BDF81230E37123781C44D3E797
:1022E000E378002BF9D1A3786BB108F101085FFA0C
:1022F00088F8F2E76B689C4207D024354F4B9D422B
:10230000F8D30020B6E74E4DF8E7AB68002BECD0D1
:10231000414620469847E8E7002DF2D000222B7F67
:102320009A42EED2296AA07801EBC2010B79984259
:1023300001D00132F3E70127E07800F003008DF8C7
:102340001400207994F805C040EA0C20ADF8120082
:1023500094F902000028FBB228DA07F110004FF0D0
:10236000010C0CFA00F010EA0A0F26D143F08000AD
:102370008DF8100004A8CDE90213019208F0F6FED2
:10238000DDE90121039BC0B99DF81020A27012F075
:10239000800F18BF10330A7118BFDBB24FF0010273
:1023A00014BF9A40BA404AEA020A96E70120B840B0
:1023B00010EA0A0F01D11846DAE70137102FBBD116
:1023C000B7E7032E1AD1FFF707FF074650B1FDF715
:1023D000B1FE024630B11028A8BF10223946A01C19
:1023E0000BF0C7FD23786FF00201E218091B04EB24
:1023F0005303D14213D50136F6B26EE7002EF1D168
:10240000B9F1000F3FF47DAFA4EB090389F8023066
:10241000C3F3072389F8033089F80480EBE702F857
:1024200001BC13F8010902F8020DE2E7A14654E7E6
:1024300092460020440300200304002028040020CA
:102440000404002010B5094B00211A461C78844270
:1024500004D15C6814B102EB811010BD0131042974
:1024600003F14003F2D10020F7E700BF0015002080
:102470002DE9F34150F8283C10F82C6C1033044639
:102480000AD1036950F8202C980736D5D2B95907DC
:1024900015D5002344F8283C54F8283C10330BD0C1
:1024A00054E9077554F8148C0BF00CFC00284FD03D
:1024B0002E4821460BF0EAFB02B0BDE8F08143F064
:1024C0000403236154F8241C01AB304608F0FEFBE2
:1024D00010B16FF01503DDE7019A54F8243C134462
:1024E00044F8243C54F8203C9B1A44F8203C54F80F
:1024F0001C3C134444F81C3CCEE754F8241C01ABAC
:10250000304602F0F5FB0028E3D1019D54F8243C4D
:102510002B4444F8243C54F8203C5B1B44F8203CFA
:1025200054F81C3C2B4444F81C3C002DB1D03046E0
:1025300002F082FCB5FBF0F303FB1055002DA8D18F
:1025400054F8203C002BA4D0304602F019FCA3E73D
:1025500044F8180CA4F1100006F028F8002DABD0B8
:10256000424639463046A847A6E700BF2804002067
:102570004B1E012B73B506460D460FD8FFF762FFC1
:10258000044668B9012D09D101AB01220DF1030107
:10259000304602F0ADFB019B002BF5D102B070BDBF
:1025A0000BF090FB04F12C0108B1012D05D1084678
:1025B00002B0BDE87040FFF75BBF034802B0BDE862
:1025C00070400BF063BB00BF280400202DE9F74FDB
:1025D000064601911546984608F0C0FB04460028BF
:1025E0005BD1EFF3118A202383F31288BFF36F8F3F
:1025F000DFF8ACB000220023584606F00BF870B9A3
:10260000DFF8A090A70109EB8414636813F1100FA1
:1026100014D10193584605F0C9FF019B06E001342F
:10262000042C0BF1400BE5D16FF00B038AF31188FA
:10263000BFF36F8F184603B0BDE8F08F019B206198
:10264000C4E902350C9B63610D9BA36130466FF0BA
:102650000F0309F80760C4F83C80636002F0ECFBEC
:1026600058B1304602F0E8FBB5FBF0F303FB105520
:102670001DB1E36B43F00403E36318F0020F07D0CE
:1026800007F12C01084849440BF000FB0023CDE77B
:10269000304602F075FB0346C8E76FF00F03C9E749
:1026A0001C150020001500202804002010B5EFF3B1
:1026B0001184202383F31288BFF36F8FFFF7C2FECC
:1026C00050B14368103307D16FF08B03436000F1C2
:1026D0002C0104480BF0DAFA84F31188BFF36F8FF2
:1026E00010BD00BF28040020F8B50E4C042520279B
:1026F000EFF3118687F31288BFF36F8F636810338F
:1027000007D16FF08B030848636004F12C010BF0D4
:10271000BDFA86F31188BFF36F8F013D04F14004C9
:10272000E6D1F8BD001500202804002070B50A4C41
:102730000A4E0025314620460BF08CFA0122A4F106
:102740001000114601350BF049FA042D04F1400444
:10275000F0D1002070BD00BF2C15002071240000B6
:102760000169012381F84B300B6833B191F849308E
:102770001BB1024808310BF089BA704728040020C9
:102780000169012381F84A300B6833B191F8483070
:102790001BB1024808310BF079BA704728040020B9
:1027A00070B50569EFF31186202383F31288BFF318
:1027B0006F8FD5F8900008F0A2F9044686F31188CF
:1027C000BFF36F8F30B104480022002305F11801D8
:1027D00006F088F8204670BD2804002070B501235B
:1027E00082F8483013680D4614463BB192F84A30DF
:1027F00023B10E4802F108010BF048FAD4F89030EA
:102800005A89DB889A4205D17DB904F1180140F656
:10281000CD4204E004F11801002DF8D00022BDE8FB
:1028200070400248002306F05DB870BD2804002007
:1028300070B50E4681880446C9B21548154608F0A1
:1028400069FA10B394F900206378002A16DB202B74
:1028500004D0222B0ED06FF085000AE02B681A6896
:1028600040F8102C9A8820F80C2C9B7900F80A3C30
:10287000002070BD638800F8093CF9E7212BEAD1FC
:102880001038072328603360F2E76FF01200F0E79A
:102890000416002008B50146034808F049FA10B1B3
:1028A000012300F8073C08BD041600200D4A03462A
:1028B0000021A0F848101068C3F89400908892791D
:1028C000A3F8980083F89A2083F89C1083F89B1053
:1028D000A3F89E1083F8A010402203F14C000BF0E7
:1028E00070BB00BF10E4000010B504690023C4F8F9
:1028F000A8300C4BC4F8A400596804F1A80269B9C7
:10290000C3E9002204F1080007490BF0A3F904F120
:10291000180006490BF0CAF9002010BD0A605A6081
:10292000F0E700BF0416002087AD0000F929000081
:1029300030B54FF40033426805690D4C85B042F262
:10294000A100CDE90103002385F89D30106AADF8A0
:102950000C1000790A2201A908F0B8F995F89D3009
:1029600023B901200BF004F8013CF7D105B030BDCC
:10297000A186010073B504698DF80710002384F85F
:1029800048302025EFF3118685F31288BFF36F8F4F
:102990000122D4F890000DF1070108F0B0F886F399
:1029A0001188BFF36F8F012813D00BF08BF910B98A
:1029B00094F8A130B3B90E4BBFF35B8F012253E8FB
:1029C000001F002903D143E800200028F7D1BFF3FE
:1029D0005B8F2122002304F11801064805F082FFD5
:1029E00002B070BD002121200BF00CFACAE700BF35
:1029F0000016002028040020F0B5D0F88C305B6869
:102A00001B6A1F7D85B00546384608F0A7F90646C3
:102A100050BB95F886303BB3A86F0146C38831F8A8
:102A20000A2F9B1A9BB2B3F5806F28BF4FF48063C7
:102A300003AA08F015F80446B0B18306A5F11803FF
:102A400008BF00F1FF3485F830600193074B03990C
:102A50000093224602233846FFF7B8FDA86F2246AE
:102A600000F10A0108F032F805B0F0BDDD270000E2
:102A700037B514460A1E054621DDD4F88C0004F152
:102A80004C0108F03CF8012384F8493023683BB13D
:102A900094F84B3023B1114804F108010BF0F6F81B
:102AA000D4F88C209388918912695B1A9BB2D31A4F
:102AB0003F2B04D8012384F8A03003B030BD94F834
:102AC0009E30002BF9D0064B009301940123402245
:102AD00004F14C012846FFF779FDEEE728040020B9
:102AE000712A0000F7B50D4601461D4808F006F9A9
:102AF000044610B30646691E56F8A4395F680529D6
:102B00001BD8DFE801F01C1A031C222610F8061C53
:102B100099B9012300F8063C3B6A3246187BFFF75F
:102B2000A7FF14F85C2C42B93B6A187D0D4B00934B
:102B3000019602231146FFF749FD03B0F0BD304670
:102B400003B0BDE8F040FFF7B1BE012304F8053C37
:102B5000F3E710F8053C002BEFD00023F6E700BFA9
:102B600004160020DD27000037B5094D094900246F
:102B700000944FF0FF334FF48062284605F072FE58
:102B8000054928460BF0A4F8204603B030BD00BF2D
:102B900028040020804F0020E0E9000008B5054827
:102BA00007F020FE044807F01DFEBDE8084003487A
:102BB00007F018BEE9E9000021EA000054EA00002D
:102BC000014806F0F5BC00BFD4E4000038B5044667
:102BD00018B90F4B0F485B6898476168B1F5683FBB
:102BE00010D0B1F5680F0DD00B4DA9420AD011F4E9
:102BF0006861206807D0014608480AF013FF0023E7
:102C00002360656038BD14220BF0DBF9F9E700BFE3
:102C10003802002082EA00002C5F5CA90C1B002017
:102C200008B520B34368B3F5683F10D101220368AB
:102C3000BFF35B8F53E8001F002903D143E8002056
:102C40000028F7D1BFF35B8F0DD1002008BD094AE2
:102C500093420AD000684FF0FF324FF0FF3305F087
:102C6000ABFB0028F1D00448F0E70448EEE76FF42E
:102C7000E040EBE72C5F5CA9E98FFFFFEA8FFFFFE5
:102C800008B5D8B14368B3F5683F10D10022036896
:102C9000BFF35B8F53E8001F012903D143E80020F5
:102CA0000028F7D1BFF35B8F0BD1002008BD074A86
:102CB000934208D0006805F0F7FBF6E76FF4E040B8
:102CC000F4E70348F2E70348F0E700BF2C5F5CA994
:102CD000E98FFFFFEA8FFFFF10B5044618B91D4BBF
:102CE0001D485B6898476368B3F5683F2FD0B3F51C
:102CF000680F2CD0194A934219D1236803BB184896
:102D00004FF0FF324FF0FF33214605F027FB08B9A3
:102D100023681BB90F4B13485B689847206814223F
:102D200000210BF04EF94FF46863636008E0B3F5DF
:102D3000683F0DD83A2B03D040F6BA629342DED1F9
:102D400020680AF0B9FE636843F03A03636010BD7F
:102D5000054AF3E73802002082EA00002C5F5CA9F4
:102D60000C1B0020A8EA00003A00003A08B506490A
:102D70000648402314220AF047FEBDE808400449F3
:102D8000044806F087BC00BF0C1600200C1B002076
:102D9000DCE40000F0E40000F7B5224E3068836800
:102DA000DB6B03B1984730688368DB6A002B31D155
:102DB0001D4C1E4D306883681B69002B2DD00122ED
:102DC0000DF107019847012827D1236843B92B68E3
:102DD0001BB369681A682A608B4208BF6A60236067
:102DE000134A9DF8070011887F2904D823680B44F3
:102DF0004F1C178018720A28DCD12368118859608B
:102E000000200C4918604D684DB9C1E900331080AD
:102E10002060CEE798470028CAD103B0F0BD2B60F0
:102E20004B60F4E7801F0020281B0020381B002087
:102E3000902D0020301B002010B5044B044618686C
:102E40008368E1B25B689847204610BD801F002070
:102E5000F8B5054616460846EFF31187202383F39D
:102E60001288BFF36F8F1B490B684BB11A4C626815
:102E70009A4205D000221A60626862B9C4E9003340
:102E8000164A136853B987F31188BFF36F8F0B602D
:102E900018463360F8BD13606360F1E7D2F804C0F0
:102EA0001C681460634508BF546087F31188BFF342
:102EB0006F8F5C680B60A042D8BF00F1FF3403F154
:102EC0000801224628460BF054F800232B55601CBD
:102ED0000123DEE72C1B0020381B0020301B0020C4
:102EE00037B52449244A0023C1E90033C2E900333D
:102EF000224A1C464868146088B9C1E9002201339F
:102F0000082B02F18802F5D11D4D1E4828600AF0F9
:102F10004BFD38B94FF0FF34204603B030BD02609E
:102F20004A60ECE70020FFF7B9F804460028F1D129
:102F30002868836823B11B6C13B113492246984754
:102F400028688368DB6A0BB1984748B128688368B2
:102F50001B69002BFAD001220DF107019847F4E715
:102F60000A4B286800221A8083681B6A002BD3D082
:102F70009847D1E7381B0020301B0020401B002061
:102F8000801F00203CE10000992D0000902D0020C2
:102F90002DE9F04FEFB0DFF8E490DFF8E480D9F8E6
:102FA000001041F20443ADF80C3040F60613ADF8C2
:102FB0001030344B1D680B785A1CA5EB080562F3E2
:102FC00002030B706BBA4B808B8800265BBA8B8038
:102FD0004E700822304608F09EF8ACB22A464146B0
:102FE00008F099F804F10A03D9F800201FFA83FBCE
:102FF0005BBAADF818301368CDF81A3007460DF1FA
:10300000180A0C345368CDF81E302A4641467FBA60
:103010000DF12200A4B20AF0ACFF2AF80B7053465F
:10302000009405AAED2132A8FEF7E2F9BDF814706C
:1030300007B3154DDFF854802B6802215B6804A8A4
:10304000984734463E1B7C2E2B68A8BF7C2632AAAC
:1030500010195B68314698472B6834445B6801213E
:1030600040469847A74205DD2B6802215B6803A80C
:103070009847E7E76FB0BDE8F08F00BFE41F00207E
:10308000A54600209C1F0020E81F0020E6EE00005F
:1030900038B50B4C05460A2120460AF055FC0222A1
:1030A000084920460AF043FC294620460AF01CFC49
:1030B00020460A210AF050FCBDE83840FFF768BFFF
:1030C0009C1F0020D5EA00002DE9F047D4B005AFE1
:1030D0000DF1180907AE4FF0FF340B463C60C9F8FC
:1030E000004034600AAD00240121C5E900440246D5
:1030F000009130A80421CDE90144089409940AF014
:103100006AFB4022214620A80AF05BFF884B1C93F3
:1031100005231D93874B8848CDE91E39874B2193A2
:10312000874BCDE92335874B2693874B0321CDE988
:103130002B01CDE92836CDE92D370422279109ABA3
:103140001CA930A8229207F043FF20B303240A21D0
:103150007E480AF0F9FB7E497C4802220AF0E7FB30
:103160007A4821460AF0C0FB4CB9734977480322DC
:103170000AF0DDFB774B754819680AF0BFFB0A219E
:1031800072480AF0E9FBFFF703FF089807F007FD14
:1031900054B0BDE8F0873B685A1CD5E90084D5D00F
:1031A000B8F1000FD2D06C4A33B9D9F80010B1F1A0
:1031B000FF3F18BF0B46136000211068FDF77CF934
:1031C00008A9C0B2FEF748FB0028BFD13B68614D9B
:1031D000002B47D1089F2B603846D7F8089006F09F
:1031E00016FE5E4A0146384606F007FD002840F00C
:1031F0009C8033684B45A9D8594A1060594A1360DE
:103200002A68574E089831682244013A07F0C0FEF8
:10321000002830609ADB0898DFF8489107F0FFFC3F
:10322000B4FBF0F303FB10462B680898A71B1C4463
:10323000D9F800309C4238BF002607F0F0FC012886
:1032400006D9089807F0EBFC013818EA000F4AD1BC
:10325000296808983B46424607F0B7FC00287FF4EF
:1032600075AF2FE02A68934201D000246FE73D4AF2
:10327000126823449342C3D968E7BA45089828BF27
:10328000BA4607F0D3FC402201460CA80AF099FE8A
:10329000524641460CA80AF06CFE2968089853462D
:1032A0000CAA07F092FC044600287FF450AF2B686C
:1032B00053442B60D044A7EB0A07089807F0AFFCF3
:1032C000B842DAD996B92B68D9F8002033443B4488
:1032D00093422B60C9D1214B08981A68114607F018
:1032E00057FEC40F33E74FF0400AE6E7089807F0AF
:1032F0009DFC082201460CA80AF063FE324608EB4A
:1033000007010CA80AF035FEDDF820802968404648
:103310007C1807F084FC0CAA03462146404607F0BF
:1033200054FC00287FF412AFCDE701240FE700BF63
:10333000D8EA000029D60000E7EA0000DEEA000033
:1033400033D60000E3EA00002FD600009C1F0020C7
:10335000D5EA0000941F0020981F00208C1F002039
:10336000881F0020841F0020F0B50C68164F174BF3
:1033700085B002380D46C4F58061009003AA381963
:103380000131FEF7B5F80446D0B92B68039A13440F
:10339000022B2B6011D93E8876BAB6B2023B9E4210
:1033A0000BD13246B91C07F0B6FE30B9022E04D953
:1033B0002B689A1E2A60FC540124204605B0F0BDFB
:1033C0004FF0FF34F9E700BF4A4700204D4B002083
:1033D00007B500230093044A0448A42302210AF0FD
:1033E000BDFA03B05DF804FBA54600209C1F002039
:1033F0002DE9F0410729ACB0044640F2178103786B
:1034000013F0050F40F0128143885BBAA1F1080563
:103410009BB2AB42C0F00A81864B186083885BBACE
:103420008380FFF7D5FFA688012E40F0E580E37981
:1034300023B1012B00F0D8800820F2E02578FDF7B9
:103440007DFB044606F080FD204606F0DBFD05F01E
:1034500007050146002840F0C5802046FDF770FAB8
:10346000002840F0BC80002D40F0B2803146724808
:10347000DFF8C8810AF068FA71496F4806220AF03D
:1034800056FA6D4805210AF05BFA266AD8F80070F2
:10349000002E6AD020230CAA0021304607F080FBC2
:1034A000684B0C9A9A420CD10023CDE90233019368
:1034B0004023009332461CAB0CA92046FDF73AF896
:1034C0000746614B1B68BB424ED100230093324636
:1034D0004FF6FF730CA906A806F0EFFB00285CD09E
:1034E0004FF0FF36142154480AF02EFA574952483B
:1034F00004220AF01CFA504829460AF0FFF94EB996
:1035000053494D4804220AF012FA4B48202214A9CC
:103510000AF004FA4F49484807220AF008FABDF8B1
:10352000463001939DF8453000934B4A9DF8443056
:1035300040211CA806F0E4F9129B4BB1421E3E2A22
:1035400006D81CAEC0F14001444A304406F0D8F918
:103550001CA8FCF7EFFD1CA9024637480AF0E7F962
:10356000354814210AF0F8F91DB9E66CD8F8007056
:103570008EB9052130480AF0EBF901212E480AF0F6
:10358000EBF9FFF705FD204606F054FD2CB0BDE831
:10359000F041FFF71DBF01257CE70DF1120304AADE
:1035A00005A906A806F0D7FB002899D1BDF812306E
:1035B000102BF2D1BDF81030202B91D13046059957
:1035C00014AA07F0EDFA061E18BF0126764289E715
:1035D000204606F02FFD0820FFF75AFDD6E72046CB
:1035E00006F028FD0120F7E7294604F108002CB079
:1035F000BDE8F041FFF768BD002E7FF41DAFE37911
:10360000012B0DD0052B7FF417AF3046FFF740FD9F
:103610004FF4005000210AF0F5FB0120FDF7D2FE27
:1036200030462CB0BDE8F041FFF732BD2CB0BDE80C
:10363000F08100BFE41F00209C1F0020F400002048
:10364000EBEA00003DB8F396CC0F0020F2EA000050
:10365000F7EA0000FCEA000004EB000010EB0000B9
:103660002DE9F341274FDFF8A080284E01233B705E
:10367000274B00240546009418603B7813B902B02C
:10368000BDE8F081234BC4F58061C3F80086C3F820
:103690000486C3F80886C3F80C86C3F81086C3F8FE
:1036A0001486C3F81886C3F81C862B6801AA01315A
:1036B000301998470028019B01DC002BDDD0044421
:1036C0002BB940F201439C42D7D10024D5E733788F
:1036D000062B09D17378092B0BD10023009369467F
:1036E000A01EFFF741FE04E0042B02D17378142BD7
:1036F000F5D00128E9D1009907480239FFF778FE93
:10370000E3E700BF494700203546526E4B4B00208F
:10371000E81F0020000001404C47002008B5034886
:10372000034A0021121A07F0AAFC08BD2804002051
:103730007C4F00200748084A084908B5121A07F0CC
:10374000A0FC0748074A0849BDE80840121A07F0DC
:1037500098BC00BF400000202804002044F0000076
:10376000000000204000002004F0000038B50546AD
:103770000C4699B1D1E901230F48096807F032F8E6
:10378000D4E90423E1680D4807F02CF8E1690C48FE
:1037900007F028F8A1690B4807F024F8012D05D19E
:1037A000EFF305810848103907F01CF82146284638
:1037B000BDE8384004F092BC14EB000044EB00007C
:1037C00074EB000084EB0000B3EB000030BFFFF7A8
:1037D000FDBF00BF2DE9F0410B4EDFF8308006EB56
:1037E0000807CC1B05463246094920460AF0C1FBB2
:1037F000A01942460021083C0AF0E3FB2C6707F1C0
:103800000800BDE8F08100BF0000000004000000D7
:103810000CE40000054B5A699B689A421FBF044A9A
:10382000536843F080535360704700BF842B0020DF
:1038300000ED00E02DE9F843324D804632488946DC
:10384000174606F0CFFFAB6ADE0622D52F4806F0FA
:10385000C9FF1124AB6A1D0703D52D4806F0C2FF2E
:103860001224284DAB6A980715D52A4806F0BAFFEE
:103870006E6BAB6A190642D52748314606F0B2FF97
:10388000B9F1000F03D0AB6A23F08003AB621324BD
:1038900003E01024DEE76FF015061A4DAB6ADA0775
:1038A00003D51E4806F09EFF1424AB6A9B0603D581
:1038B0001B4806F097FF1524124B9A6AD50602D4CE
:1038C0009A6A90070AD55B68190507D541463046C4
:1038D00000F002FB10B180F309880224094B9A6AB8
:1038E000920642BF5A6A22F400525A629A6A42F021
:1038F000FF029A6200233B702046BDE8F8836FF018
:103900001506C4E700ED00E0C7EB0000DEEB0000A9
:1039100012EC000026EC00003FEC000056EC00002A
:1039200076EC000010B51D4C1D4806F05BFFA36A45
:10393000990130D51B4806F055FF1E20A36ADA0115
:1039400003D5194806F04EFF1F20144CA36A1B0331
:1039500003D5164806F046FF2120A36A590303D574
:10396000134806F03FFF22200C4CA36A9A0303D5AC
:10397000104806F037FF2320A36ADB0303D50E4867
:1039800006F030FF2420054A936A6FEA03436FEA8A
:103990001343936210BD1D20D0E700BF00ED00E08F
:1039A000A6EC0000BFEC0000D3EC0000EEEC000041
:1039B0000DED000033ED00004EED000070B5244C1D
:1039C000064624480D4606F00DFFA36AD90435D5F6
:1039D000214806F007FF1720A36A1A0503D51F48E0
:1039E00006F000FF18201A4CA36A9B050FD51C484F
:1039F00006F0F8FEA16BA36A180407D5194806F073
:103A0000F1FE1EB1A36A23F40043A3621920104CF7
:103A1000A36A590503D5144806F0E4FE1A20A36AE8
:103A2000DA050DD5114806F0DDFE1B20084A936A21
:103A300043F47F43936200232B7070BD1620CBE7C5
:103A4000A36A9B04F2D50A4806F0CCFE1C20EDE7E1
:103A500000ED00E07AED000091ED000012EC0000B6
:103A6000A3ED0000BDED0000D3ED0000EFED000080
:103A700076EC00002DE9F0415B4B5F688AB00446AC
:103A8000C7F30806002585F31188BFF36F8F02F096
:103A90007F43B3F17F4F06D102F00C03082B13D103
:103AA000524806F09FFE00252C464FF00008F31EFA
:103AB0008DF80780092B00F28680DFE803F00A7A90
:103AC0007E7684848484848210074CBF0C46012552
:103AD000EBE74748444E06F085FE8DF80780F36A11
:103AE0009A0704D5434806F07DFE002330E0F36AD0
:103AF000002B01DA4048F6E7F36A5B00F5D53F4852
:103B000006F070FE7369A26943F480737361BFF3BA
:103B10004F8FBFF36F8F736932F8022C23F48073D9
:103B20007361BFF34F8FBFF36F8F4DF602739A42ED
:103B300009D0B36ADBB253B30DF10702012120466D
:103B4000FFF778FE33E021682D4806F04BFE23682E
:103B50009DF80720C2B902AE04F120072068616811
:103B6000324603C20834BC421646F7D1099AB5B3AF
:103B7000C2F3080121B96FEA52226FEA4222099288
:103B800002A91846FFF7F2FD0AB0BDE8F081B36A5A
:103B900013F47F4F05D00DF107010120FFF70EFF51
:103BA00005E0B36AB3F5803F9FD3FFF7BBFE034642
:103BB000CEE70DF107020021C1E70DF1070100205A
:103BC000ECE710488FE7104B1049114817F4F87FC5
:103BD000A6F1100218BF194606F004FE85E722F48C
:103BE000FF7222F00102CAE700ED00E036EE0000AD
:103BF00062EE00007AEE00009CEE0000ABEE0000EA
:103C0000CBEE0000E8EE00001DEE000008EE000024
:103C10000DEF0000044B5A6942F010025A615A69D4
:103C200022F008025A61704700ED00E0EFF30880CF
:103C3000EFF3098101B57246FFF71CFF01BD00BF1C
:103C4000002080F31488BFF36F8F0F4880F308883B
:103C500003F0A8FD00200D490860BFF34F8F00F06E
:103C60002BF8202080F3118809484FF40461401894
:103C700080F30988EFF314800221084380F314884D
:103C8000BFF36F8F00F0F8F8C089002094ED00E0DA
:103C9000005800200749D1F890200023C2F30722E2
:103CA0001846934200DB7047C1F89830C1F8A00075
:103CB0000133F6E700ED00E008B572B6002383F3A8
:103CC0001388FFF7E7FF144B4FF0FF32C3F8802053
:103CD000C3F88420C3F88820C3F88C20C3F8902050
:103CE000C3F89420C3F89820C3F89C20C3F880211F
:103CF000C3F88421C3F88821C3F88C21C3F890212C
:103D0000C3F89421C3F89821C3F89C2162B6BFF38D
:103D10004F8FBFF36F8F08BD00E100E0084B9B6839
:103D200083420BD1EFF3058343B1064B5A6842F04F
:103D300080525A605A6A22F400425A6205F02CB945
:103D4000842B002000ED00E014498A684FF0300019
:103D50001044EFF3098C80E8F01F202080F31288D4
:103D6000BFF36F8F0E4F4FF000664A698A603E6066
:103D7000106F0C4C2060506F0023536780F3118844
:103D800004B5104600F00CF9BDE8044002F1300023
:103D900090E8F01F8CF3098870470000842B002006
:103DA00004ED00E0EC1F00201EF0040F0CBFEFF349
:103DB0000880EFF30980816911F8021C0229FFD005
:103DC00001B5724607F05FF901BD00BF40B200289F
:103DD00007DB044A4109012300F01F00834042F839
:103DE0002130704700E100E040B200280CDB4309BD
:103DF000064900F01F0020330122824041F82320B1
:103E0000BFF34F8FBFF36F8F704700BF00E100E03B
:103E1000054B420900F01F0053F82220012303FA4A
:103E200000F01040704700BF00E100E040B2002801
:103E3000A8BF00F1604001F10101B8BF064B4FEA95
:103E40004111ACBF00F5614000F00F00C9B2B4BF32
:103E5000195480F80013704714ED00E0044B054A34
:103E600023F07F039360BFF34F8FBFF36F8F7047D3
:103E70000000000000ED00E008B5FFF7EFFF074A83
:103E8000D2F8883023F47003C2F88830FFF746FC7C
:103E9000FFF750FC00F05AF804F0E8F900ED00E0FC
:103EA00042F8203C009B42F81C3C0A49019B42F826
:103EB000183C029B42F8143C21F001014FF0807342
:103EC00042F8043C42F8081C0023203A026543678C
:103ED000704700BF91130000094A0346906870B113
:103EE00013F1160F006E05D0A0F140029A4205D8DA
:103EF000834203D2814228BF0020704700207047D0
:103F0000842B002008B515460B4A0C4B9060026FBD
:103F10001A600E4600F044F82C4686F3098800200B
:103F2000034B98472046002100220023014C2047E4
:103F3000ABB0000091130000842B0020EC1F002088
:103F4000014B10221A61704700ED00E00448002385
:103F50002021C2180133302B82F80013F9D17047A9
:103F600000E100E008B5EFF30583064A103B02EBE1
:103F7000C30152F8330049688847BDE80840FFF79D
:103F800049BC00BF9CE10000024B034A03480121E9
:103F900000F076B8000004200000002000E50000DA
:103FA000026E054B403A1A60044A4021C3E90112EF
:103FB0001846012100F06EB8F01F002000000B151C
:103FC000084AC2F898000B6823F01F03034343F02C
:103FD0001003C2F89C308B6843F00103C2F8A03094
:103FE000704700BF00ED00E02DE9F043DFF860808E
:103FF00085B00E461F4604464FF00009B14523DA4E
:104000006068D8B13FB1411E08421BD11F2819D9A1
:104010002368194216D12368019307F069F8A36851
:1040200003430393D8F89050C5F30725D0B2013D60
:10403000A84207D801A9FFF7C3FF421C09F10109F3
:104040000C34DBE76FF01502104605B0BDE8F083D5
:1040500000ED00E0044B0522C3F89420BFF34F8F1E
:10406000BFF36F8F704700BF00ED00E0BFF35F8FBD
:10407000024B0022C3F89420704700BF00ED00E01F
:1040800010B5034C01232278FFF7AEFF207010BD5E
:104090004C4F002008B50B4A00231278FFF7A4FF0D
:1040A00010F1160F07D0084A0021D2F89030C3F360
:1040B0000723984200DB08BDC2F89800C2F8A010A0
:1040C0000130F2E74C4F002000ED00E02DE9F04315
:1040D000534B544CD3F890302568C3F307239D42CB
:1040E00085B000F29A80FFF7C1FF00200C268542C0
:1040F0001AD14D4C4D4F25706846FDF7A7FBDFF8F0
:104100002081DFF82C9106460025AE4213D123789A
:1041100043490020D1F89020C2F30722934276DB76
:10412000FFF798FF002042E0616806FB0011FFF7EF
:1041300047FF0130DBE7009800EB05114FEA051C53
:10414000CB683B40B3F5000F48D00AD8B3F5001F49
:1041500030D0B3F5800F36D0B3F5801F10D00135C5
:10416000D3E7B3F1807F42D0B3F1007FF7D150F8AD
:104170000C3088684A6806F0BBFF40F4802009E0F4
:1041800050F80C3088684A6806F0B2FF40F088505A
:1041900040F43020CDE901230390D8F89030207806
:1041A000C3F30723013B98422AD96FF0150005B0ED
:1041B000BDE8F08350F80C3088684A6806F098FF34
:1041C00040EA0900E6E750F80C3088684A6806F0D3
:1041D0008FFF40F0007040F40030DBE750F80C3007
:1041E00088684A6806F084FF40F08270D2E750F891
:1041F0000C3088684A6806F07BFF40F08870C9E799
:1042000001A9FFF7DDFE237801332370A7E7C1F88A
:104210009830C1F8A00001337CE74FF0FF30C6E7CB
:1042200000ED00E00CE500004C4F00200000F0FF26
:104230000000081108B5054806F0D4FA002383F3FE
:104240001188BFF36F8F0423184602DF30EF0000A0
:1042500008B50649064821F00701C1F1005202F5F0
:10426000802206F065FA002008BD00BFC798002034
:10427000FC1F0020044A0123C2F840354FF0804261
:104280000020C2F87835704700E0014048B1054B86
:10429000054A1B68B3FBF2F35843044B43F0010398
:1042A000184770472402002040420F0020E400001D
:1042B000BFF34F8F0549064BCA6802F4E06213430F
:1042C000CB60BFF34F8F00BFFDE700BF00ED00E004
:1042D0000400FA0508B50448044A3F23C0E9002356
:1042E00003F00AFB002008BD08200020FFFF0F009C
:1042F000020600F07F0312D5082B05D1010700F05C
:104300000F0306D50E48704710F0780F12D100F059
:104310000F034C2000EB43100A4B18447047082B46
:1043200005D1020700F00F0306D50748704710F0CB
:10433000780FF6D000207047044800EB4310704718
:104340005C210020102000207C2200207C21002005
:104350000149024809F09ABC38200020C804002016
:104360000146014809F02FBC340300200248002216
:10437000002304F0E9B800BF3403002013B512484D
:1043800000F0E4FE114B98421AD1114803F0DAFD17
:104390000024104803F018FE0F49104800944FF015
:1043A000FF334FF4806204F05DFA0D490B4809F0C9
:1043B0008FFC0C480C4909F04DFC204602B010BDA2
:1043C0006FF00400FAE700BFD14500000000AD0B1C
:1043D00047EF00002CE50000C0530020C804002077
:1043E00039EF000038200020ED46000010B50E49DE
:1043F000BFF35B8F002351E8002F012A03D141E86E
:1044000000300028F7D1BFF35B8F0CD151F8044C7A
:104410001439204606F0EBFA783004D12046BDE886
:10442000104006F0C0BA10BD3020002038B500247E
:1044300064F07F00C0B2FFF75BFF013406F07FFE3F
:10444000082CF5D10E4D0024E0B2FFF751FF0369AF
:1044500003B90561013406F072FE082C05F1400530
:10446000F2D1084806F06BFE074BD3F87C2212B954
:10447000064AC3F87C22064806F061FE002038BDDB
:10448000A02600205C21002010200020A022002077
:104490007C22002010B5054CFFF768FF20B1416871
:1044A000204609F0BFFAF7E710BD00BFA4020020C4
:1044B00007B500230E48002201A903F04FFF90B179
:1044C000FFF7E8FF0A480022002301A903F046FF96
:1044D00038B90198042340600374FFF741FFFFF7E8
:1044E00037FF002001E00198406003B05DF804FB55
:1044F000A4020020022810B511D8094B1C5CFFF75C
:10450000D7FF60B1002202740472FFF729FF054B48
:1045100093F824301BB1BDE81040FFF719BF10BD60
:1045200044EF000010200020F8B587780646384692
:10453000FFF7DEFE3B06F578044612D5002D43D189
:10454000FFF7B6FF034600283ED00122A57702748C
:10455000032202739C60FFF703FFBDE8F840FFF7FA
:10456000F7BE4DB1012D2FD1FFF7A2FF034658B37F
:10457000657705740573EDE7FFF79AFF20B3B2780E
:10458000124B12F0800F02F0080111D041B1D3F8A4
:10459000A836E36001230374022303738460DAE71F
:1045A00002F00F02142101FB0233D3F80836F0E7C2
:1045B00011B1D3F8A837ECE702F00F02142101FB88
:1045C0000233D3F80837E4E7F8BD00BF00700240BB
:1045D000F0B5064689B01422002103A809F0F1FCC9
:1045E0003378013B052B21D8DFE803F07A0314145C
:1045F0006A1603238DF814300024FFF759FF034691
:10460000A0B1047400F10802DDE9050182E80300AD
:1046100018461DE00423EDE7B7783846FFF768FE3B
:10462000837A044623B1013B022B43D909B0F0BD84
:104630003B06F57813D5002DF8D1FFF739FF034677
:104640000028F3D00122A5770274032202739C6034
:10465000FFF786FE09B0BDE8F040FFF779BE55B11F
:10466000012DE3D1FFF724FF03460028DED0657754
:1046700005740573EBE7FFF71BFF07460028D5D04D
:104680000123037402230373846004F10C01B078E6
:1046900006F0B6FD134AE168B2F88C328B4206D9B7
:1046A0005B1AA2F88C3201F09FF83846D0E7A2F8E6
:1046B0008C52FAE7304609B0BDE8F040FFF734BF4E
:1046C00001A801F06FF89DF80530052B04D19DF885
:1046D000043013F0600FA9D0034B059301248CE73D
:1046E00002248AE7102000207C2100202DE9F043DD
:1046F000A64CDFF89C9285B08046FFF737FE074650
:1047000010B905B0BDE8F08394F825303A7C3BB988
:10471000002A00F0878079689D4809F083F9ECE76A
:10472000042A43D8DFE812F07E00050001011701DA
:1047300040013B7BBD68032B38D8DFE803F0023E25
:104740005B606E69934B002232607260D3F8801414
:104750003170D3F884147170D3F88814D3F88C04B2
:1047600041EA00217180D3F89014D3F8940441EA0F
:104770000021B180D3F89814D3F89C3441EA032384
:10478000F3800823EB6030687168834B03C31146E4
:104790002B68687A984796F90030002B09DBF3887C
:1047A0009AB232B1A4F88C3201F01EF8796848460A
:1047B000B3E70023A4F88C32F8E76B7F002BF5D029
:1047C0002B7F002BF2D000266E774FF0FF3273481C
:1047D0002E774FF0FF3306F0C5FC6B6901936B68D1
:1047E000CDE9023601A9687A00F006FD6B4806F0B3
:1047F000BBFCDBE72B680121687A9847D6E7AB7AE8
:104800006BB9EB7F5BB965484FF0FF324FF0FF3378
:1048100006F0A8FC00F0EEFF604806F0A5FC2B684F
:104820000221E9E73A7A042AC0D8DFE802F0590306
:104830002367730000F04AFC05460028B6D100F05B
:1048400085FBBFF35B8F5649012351E8002F002AF7
:1048500003D141E800300028F7D1BFF35B8FA5D129
:1048600041F8085C41F8105CE0696361143906F0B6
:1048700043F89BE7002565F07F00C0B2FFF738FDE5
:10488000037A13B1407A01F019F90135082DF2D1FC
:1048900094F854311BB194F8550101F00FF900253B
:1048A000E8B2FFF725FD037A13B1407A01F006F96B
:1048B0000135082DF4D194F874321BB194F87502C7
:1048C00001F0FCF8002000F0E5FB012384F825301E
:1048D0002368002B3FF46AAF00210220984765E768
:1048E000002584F8255001F04FF8FFF77FFD23687D
:1048F000002B3FF45BAF29460420EFE7002B3FF489
:1049000055AF00F0EDFB2368002B3FF44FAF0021C3
:104910000520E3E72268002A3FF448AF002B3FF46C
:1049200045AF00210620904740E708F110054FF001
:10493000FF334FF0FF32284606F014FCFFF776FDF8
:10494000284606F011FC58F8283C002B3FF42EAF07
:1049500000210120C2E794F874327BB1012584F86C
:10496000895284F88852FFF7A3FD38B10D4A0574C7
:1049700005738260FFF7F4FCFFF7EAFC58F8283C67
:10498000002B3FF413AF00210A20A7E710200020DE
:10499000A4020020007002401420002048200020C3
:1049A000302000207C22002008F04BFC00F0ECFFBF
:1049B00000F0C2FAFFF76EFDFFF738FD08F03AFC91
:1049C000014800F0C3FBF1E6D145000038B5164DB3
:1049D00095F824402CBB05F1380009F06DF820460D
:1049E00001F0BEF922460121E8612720FFF71EFAF7
:1049F00008F020FCFFF71AFD044610B9012385F8E2
:104A000024300A4B1B680BB1FFF7A2FC4FF0804328
:104A1000D3F83834DB0702D50020FFF76BFD2046C2
:104A200038BD0024FBE700BF102000203403002025
:104A300010B50D484FF0FF324FF0FF3306F092FBF8
:104A4000FFF728FD00F042FB08B100F09DFFFFF7E3
:104A5000CDFC08F0F6FB0548002480F824403830EF
:104A600006F082FB204610BD4820002010200020C8
:104A7000074B93F824203AB193F82530002B14BF4C
:104A800000206FF0120070476FF01200704700BFF7
:104A90001020002038B5104B93F824300446C3B1E1
:104AA00005782846FFF724FC10B96FF0150038BDD3
:104AB000457223798372638843602078618810F09F
:104AC000080F02D14B1E0B42EFD106F094FB0020E1
:104AD000EDE76FF01200EAE71020002038B5124B26
:104AE00093F824200546CAB193F82530B3B1FFF7F7
:104AF000FFFB0446A8B1837A012B12D007D9023BF1
:104B0000012B07D96369A3610020E06038BD00F084
:104B100077FEF7E7284600F019FEF3E76FF0120082
:104B2000F4E76FF01500F1E71020002038B50E4BC8
:104B300093F82420054682B193F825306BB1FFF736
:104B4000D7FB68B115F008040AD1284600F020FE12
:104B5000284600F0EBFF204638BD6FF01200FBE75F
:104B60006FF01500F8E700BF1020002038B50C4B9F
:104B700093F8242005460C4662B193F825304BB1DA
:104B8000FFF7B6FB48B144B1284600F0E7FD2070BE
:104B9000002038BD6FF01200FBE76FF01500F8E75A
:104BA0001020002070B5134E96F824300446C3B18F
:104BB000FFF79EFB0546B8B1230705D4204600F059
:104BC000E7FD204600F0B2FF2B7A83B901232B7258
:104BD00096F825300BB9002070BD204600F06EFF1E
:104BE000F9E76FF01200F7E76FF01500F4E76FF0E8
:104BF0007700F1E7102000202DE9F043DFF8E48092
:104C00001E4698F8243085B0074689461546002B85
:104C100061D098F82530002B5DD003065ED5FFF7F4
:104C200067FB0446002859D0037A002B56D04FF07A
:104C3000FF334FF0FF3208F1380006F093FAA37FFC
:104C40004BB108F1380006F08FFA6FF00A042046E5
:104C500005B0BDE8F083A37AC5B13BB30123A377C8
:104C60004FF0000801A93846CDE90195CDF80C8038
:104C700000F0C2FA1C4B984229D084F81E801EBB5B
:104C80006FF00404194806F06FFAE0E7E27F02B122
:104C9000E577002BE2D100F0B9FD8742DED000F0CD
:104CA000A9FD124806F060FA0024D0E7B8F80A30EF
:104CB000AB42F0D96268B5FBF2F302FB1353002B51
:104CC000E9D10123E377E6E7C6F80080D8E706B12B
:104CD00035600024D6E76FF01204B8E76FF01504D2
:104CE000B5E700BF102000200000AD0B48200020D9
:104CF0002DE9F0411D46204B174693F824200E461F
:104D0000002A33D093F8253083B3030631D401B998
:104D10007FBBFFF7EDFA044658B3037A4BB34FF06D
:104D2000FF3316484FF0FF3206F01CFAE368BB422F
:104D3000984628BFB84646B93FB905B12B600F4821
:104D400006F012FA0020BDE8F081A1694246304623
:104D500009F00FF9A3694344A361E368A3EB0803D7
:104D6000E360002DEBD0C5F80080E8E76FF012009B
:104D7000E9E76FF01500E6E710200020482000204A
:104D800070B51E4D95F82420034682B395F8252072
:104D90006AB31B062ED4FFF7ABFA044650B3037A6E
:104DA00043B34FF0FF334FF0FF3205F1380006F008
:104DB000D9F9E368B3B9012663692677A361637FF4
:104DC00083B1FFF775FB30B905F1380006F0CCF977
:104DD0006FF00B0070BD067484600673FFF7C0FAB5
:104DE000FFF7B6FA064806F0BFF90020F2E76FF0C9
:104DF0001200EFE76FF01500ECE700BF1020002075
:104E00004820002010B5084B93F824300C462BB1F5
:104E1000FFF76EFA28B10460002010BD6FF0120099
:104E2000FBE76FF01500F8E710200020014B186039
:104E3000704700BF1020002008B5074B93F82430BE
:104E400023B1FFF755FA20B1406808BD6FF012009A
:104E5000FBE76FF01500F8E7102000204FF08053BB
:104E6000D3F83021082A06D1D3F83431052B04D8E1
:104E7000034AD05C7047002070470120704700BF94
:104E800048EF0000064B10F0800FA3F1D80208BFD6
:104E9000134600F00F00182202FB0030704700BFDD
:104EA000B8290020EFF31180202383F31288BFF389
:104EB0006F8F0A4BD3F8001C032261B949F2753198
:104EC000C3F8001CC3F8142DC3F8001C80F311882C
:104ED000BFF36F8F7047C3F8142DF7E700E006406B
:104EE000EFF31180202383F31288BFF36F8F0A4BF7
:104EF000D3F8001C61B949F27532C3F8002CC3F82D
:104F0000141DC3F8002C80F31188BFF36F8F704716
:104F10000022C3F8142DF6E700E006404FF080535E
:104F2000D3F83031082B02BF024B0022C3F81C2CEF
:104F3000704700BF00700240024A00231360024A1B
:104F400013707047982A0020514F002008B54A4B33
:104F50004FF40062C3F80024FFF780FF08B1FFF7A9
:104F6000A1FF4FF08053D3F83031082B18D1EFF365
:104F70001180202383F31288BFF36F8F3F4BD3F848
:104F8000001CC02200296ED149F27531C3F8001C03
:104F9000C3F8142CC3F8001C80F31188BFF36F8F83
:104FA000354B0122C3F80025D3F800241205FBD5A8
:104FB0004FF40062C3F800244FF08053D3F830312F
:104FC000082B17D1EFF31180202383F31288BFF34E
:104FD0006F8F2A4BD3F8001C002947D149F2753254
:104FE000C3F8002CC3F8141CC3F8002C80F31188FC
:104FF000BFF36F8FFFF732FF30B1FFF771FFFFF79D
:105000002DFF08B1FFF74EFF4FF08053D3F830313A
:10501000082B194B0AD140F2E372C3F80028402252
:10502000C3F80428BFF36F8FBFF34F8F8022C3F8FC
:105030001C250122C3F83025114B40F2FF121A60E3
:10504000104B00211960104B1970FFF767FF0F4BD1
:1050500019700F4B02221A70FFF700FF50B1BDE824
:105060000840FFF73DBFC3F8142C95E70022C3F8B2
:10507000142CBBE708BD00BF0070024000E00640F2
:10508000942A0020902A00204D4F00204F4F0020EE
:10509000514F0020094B002210B51A70084A094BE5
:1050A000094C002808BF1346C4F800332720FEF738
:1050B0008DFE0123C4F8043510BD00BF504F002001
:1050C000FDFFDF01FDFFFF0100700240034B187878
:1050D000012894BF00200120704700BF514F0020DD
:1050E00010B54FF0FF324FF0FF33154803F092FA3E
:1050F000EFF31181202383F31288BFF36F8F114BDD
:105100001B7803F0FF0483B10F4BD3F8002412F493
:1051100000720AD10120C3F82C05D3F82C05D3F86E
:105120000004800502D5C3F82C25002481F31188E2
:10513000BFF36F8F024803F039FA204610BD00BF5D
:1051400024030020504F002000700240F8B51C4B93
:105150001C7894BB1B4A106001221A7040F2FF17A2
:10516000264664F07F0514F0080FEDB214BF3946EF
:105170004021284606F03FF82846FFF783FE013419
:10518000092C867506730661EBD1002440F2FF17E7
:10519000254614F0080FE6B214BF394640213046C8
:1051A00006F029F83046FFF76DFE0134092C8575AD
:1051B00005730561EDD10448F8BD0448FCE700BF64
:1051C000514F0020982A00200000AD0B0500AD0BC8
:1051D000084B10F0800F00F00F0114BFD3F810251A
:1051E000D3F8142501238B40134214BF0120002063
:1051F000704700BF007002402DE9F8430246EFF30C
:105200001187202383F31288BFF36F8F030703D125
:10521000184B1B78834229D1174B184E1C683568F0
:10522000104605F0E0FFE443A4B24FF001092C431F
:1052300009FA00F814EA08041AD11046FFF722FE12
:1052400080F80C90034607C91C6183E807009C7531
:105250000B4B0C4845EA080580223560C3F8042151
:1052600087F31188BFF36F8FBDE8F8830648F7E72F
:105270000648F5E74F4F0020942A0020902A00208E
:1052800000E100E00000AD0B0A00AD0B0B00AD0B20
:1052900010F0080F074B06D0D3F8C00410F4803F7D
:1052A00018BF0020704700F00F0000F5947053F80D
:1052B00020007047007002402DE9F74FAB4BAC4E19
:1052C000D3F85421DAB10022C3F85421D3F80413DF
:1052D000890214D58DF80420D3F82025ADF80620D6
:1052E000D3F8C034002B336814BF4FF001224FF4C1
:1052F0008072134333609F4B01A81B6898479B4BF8
:10530000D3F8604134B10022C3F86021D3F86C4473
:10531000C3F86C44D3F828214AB10022C3F82821ED
:10532000954B187805F05FFF012383401C43DFF89D
:105330004C82934F98F8005098F9009015F00801AE
:1053400043D1B9F1000F05F00F032EDA8D4A52F860
:10535000230020B342F823101422534303F1804367
:1053600003F51C33D3F80836874A117803F001039C
:105370004B401370FFF7D2FD844803F017F928461D
:10538000FFF780FD837D032B37D1284605F02BFFE7
:10539000012303FA00F03B6823EA00033B60DFF8D7
:1053A000D4A101254FF006095DE0794A52F82300A7
:1053B0000028F4D042F823101422534303F1804311
:1053C00003F51C33D3F80837CEE7B9F1000F674B6C
:1053D00009DBD3F85021002AE1D00022C3F8502184
:1053E000D3F8A837C0E7D3F82C21002AD7D0002261
:1053F000C3F82C21D3F8A836B6E7037BDBB92846DF
:1054000005F0F1FE012303FA00F03B68B9F1000F4B
:1054100023EA00033B6001DA882DC0D106238DF812
:10542000043000238DF80730524B8DF806501B686E
:1054300001A89847B3E7002DB1D14C4B0122DA64A3
:10544000ADE794FAA4F03268B0FA80F005FA00F300
:105450001A430F28326024EA03043A6840F39C8020
:10546000134200F0A980002CEBD1404BD3F800216F
:105470005AB1C3F80041474B1C703F4B1C700123CD
:1054800001933C4B01A81B689847384BD3F858212F
:10549000002A2ED00022C3F85821D3F80044C3F8C4
:1054A0000044E30508D53B4B01221A700223019307
:1054B000304B01A81B689847A50508D5354B00223D
:1054C0001A70032301932B4B01A81B6898476005B2
:1054D0000FD5304B1A7862B100221A70234B01228B
:1054E000C3F808259A6504230193224B01A81B6881
:1054F00098471E4BD3F85C3103B3244B9B681BB910
:1055000098F80030590619D0184B0022C3F85C21D6
:10551000D3F88034184A23F07F0313703B6823F0DC
:1055200001133B60336823F4803343F0010333609D
:10553000052301930F4B01A81B6898473A6833680D
:105540001A4200F0EB8011480022002303F062F8B9
:10555000002840F0E380054BD3F82C35002B7BD09E
:105560000A4803B0BDE8F04F03F020B800700240D5
:10557000942A0020982A00204F4F00204E4F0020F0
:10558000902A0020087102404D4F00202403002083
:1055900030710240504F002013407FF464AF60F040
:1055A0007F018DF804908DF806108DF80730DAF839
:1055B000003001A8984756E7A0F110018DF804903B
:1055C0008DF806108DF80750F1E749F08005284660
:1055D000FFF758FC4368B0F814A001689A4528BF4B
:1055E0009A4601F06043B3F1005F044604D054488A
:1055F000524608F0BEFC5249226863685244226059
:10560000A268A3EB0A03D20768B2636053D5BAF16C
:10561000000F52D1002323734FE011464FF0000AD0
:10562000604545D1003B18BF0123002A42D05045B8
:1056300040D9012303FA09F32BEA03033B60062355
:105640008DF804303F4B8DF8065002221B68A2757E
:105650008DF8072001A89847D7F800B033681BEAF7
:1056600003093FF47DAF19F0012314BF93FAA3F9A6
:1056700099FAA9F9B9FA89F9B9F10F0FA5D9A9F1E0
:105680001005EDB22846FFF7FDFB04462846FFF75C
:10569000FFFD6368B4F814C022689842BDD81B1A95
:1056A00000EB020E11466360C4F800E08246B7E7E3
:1056B0000023BAE768B2002BACD04FF08053D3F888
:1056C0003031082B02BF204B8222C3F81C2C3368D8
:1056D00088F80050012202FA09F923EA090333602D
:1056E000236915F0080F53442361174B19D1002883
:1056F00005F00F054FF0140000FB0530A9BF0A3577
:1057000003EB8503C0F80017C0F804A7AFBF43F848
:105710002520C0F80016C0F804A65A6003B0BDE802
:10572000F08F0028B5BFC3F8A016C3F8A017C3F8C0
:10573000A4A6C3F8A4A7B4BF5A629A64EEE700BF58
:10574000A0280020982A002000700240024B40F45C
:105750008070C3F81805704700700240030713D427
:1057600000F00F0310F0800F084A0BBF03F5887399
:1057700003F5847302EB830252F8230008BF5068DC
:10578000003818BF012070470020704700700240A9
:10579000034BC3F80C0540F48070C3F80C05704748
:1057A000007002400023036043600E4BD3F8802456
:1057B0000270D3F884244270D3F88824D3F88C1470
:1057C00042EA01224280D3F89024D3F8941442EAAA
:1057D00001228280D3F89824D3F89C3442EA032330
:1057E000C380704700700240014B0122DA647047A9
:1057F00000700240014B01221A65704700700240A0
:10580000014B01225A65704700700240014B187825
:10581000704700BF4F4F002010B50246EFF31184D0
:10582000202383F31288BFF36F8F05F0DCFC0B4954
:10583000012303FA00F00B6823EA00030B6012F067
:10584000080101BF02F00F02054B02F5947243F804
:10585000221084F31188BFF36F8F10BD942A0020AB
:1058600000700240F7B50146EFF31185202383F362
:105870001288BFF36F8FFFF705FB0646084605F059
:10588000B2FC012211F0800F02FA00F22D4818D16B
:10589000036832EA03040AD00846FFF7BDFF03237A
:1058A000B37585F31188BFF36F8F03B0F0BD264940
:1058B000347323EA020303600B6823EA02030B60DC
:1058C000EDE70B0715D48029204B2FD001F00F04F2
:1058D00004F2DA346400C3F80048D3F80448D3F87B
:1058E0000478E4B244F002043C43C3F80448D3F81B
:1058F0000438154F04683B6864EA030C1CEA020F85
:10590000CFD013433B60002333730323B3758DF86B
:1059100007300F4B8DF8061024EA020406220460BB
:105920001B688DF8042001A89847BAE740F2B474C8
:10593000C3F80048D3F80448D3F80478E4B244F03C
:105940000404D1E7902A0020942A0020007002402D
:10595000982A002038B50446094D4FF0FF324FF029
:10596000FF33284602F056FE2046FFF77BFF28460D
:1059700002F01CFE034B8022C3F8042138BD00BF97
:105980002403002000E100E0F8B54FF0FF324FF0B3
:10599000FF332B4802F03EFE2A4B8022C3F88421BD
:1059A0002720FEF735FA98B1274E284B34681B683C
:1059B000240C24041C43012764BB254D40F2FF1333
:1059C00033602720C5F80445FEF70EFAC5F80043FA
:1059D000204A13788BB11E4B0021C3F80811012116
:1059E000C3F80026C3F804165960D3F8081100293B
:1059F000FBD00021C3F808111170154B0022C3F829
:105A00000025FFF78BFA0E4802F0D0FD124B012261
:105A10001A70F8BD94FAA4F5B5FA85F50F2D28464D
:105A2000C6BFA5F11000C0B240F08000030701D44A
:105A3000FFF718FF07FA05F524EA0504BCE700BFE5
:105A40002403002000E100E0942A0020902A002096
:105A5000007002404D4F0020514F002010B5044609
:105A60004FF0FF324FF0FF33114802F0D3FD2046D4
:105A7000FFF7F8FE04F00F02012393400D4A14F0E3
:105A8000800F14BFD2F81015D2F814156FEA030373
:105A900015BF0B400B40C2F81035C2F8143504484E
:105AA00002F084FD044B8022C3F8042110BD00BF26
:105AB000240300200070024000E100E070B50446BD
:105AC000FFF786FB68B904F00F02012514F0800F80
:105AD000144B05FA02F205D0D3F810150A43C3F8A7
